{
  "contractName": "CLVFaucet",
  "abi": [
    {
      "inputs": [
        {
          "internalType": "address",
          "name": "_CLV_address",
          "type": "address"
        }
      ],
      "payable": false,
      "stateMutability": "nonpayable",
      "type": "constructor"
    },
    {
      "constant": true,
      "inputs": [],
      "name": "currentBalance",
      "outputs": [
        {
          "internalType": "uint256",
          "name": "",
          "type": "uint256"
        }
      ],
      "payable": false,
      "stateMutability": "view",
      "type": "function"
    },
    {
      "constant": false,
      "inputs": [
        {
          "internalType": "uint256",
          "name": "amount",
          "type": "uint256"
        }
      ],
      "name": "payin",
      "outputs": [
        {
          "internalType": "bool",
          "name": "",
          "type": "bool"
        }
      ],
      "payable": false,
      "stateMutability": "nonpayable",
      "type": "function"
    },
    {
      "constant": false,
      "inputs": [
        {
          "internalType": "uint256",
          "name": "amount",
          "type": "uint256"
        }
      ],
      "name": "payout",
      "outputs": [
        {
          "internalType": "bool",
          "name": "",
          "type": "bool"
        }
      ],
      "payable": false,
      "stateMutability": "nonpayable",
      "type": "function"
    }
  ],
  "bytecode": "0x608060405234801561001057600080fd5b506040516104c93803806104c98339818101604052602081101561003357600080fd5b8101908080519060200190929190505050806000800160006101000a81548173ffffffffffffffffffffffffffffffffffffffff021916908373ffffffffffffffffffffffffffffffffffffffff16021790555050610432806100976000396000f3fe608060405234801561001057600080fd5b50600436106100415760003560e01c80636e696fe914610046578063ce845d1d1461008c578063e1152343146100aa575b600080fd5b6100726004803603602081101561005c57600080fd5b81019080803590602001909291905050506100f0565b604051808215151515815260200191505060405180910390f35b61009461021f565b6040518082815260200191505060405180910390f35b6100d6600480360360208110156100c057600080fd5b8101908080359060200190929190505050610302565b604051808215151515815260200191505060405180910390f35b600080821115610216576000800160009054906101000a900473ffffffffffffffffffffffffffffffffffffffff1673ffffffffffffffffffffffffffffffffffffffff166323b872dd3330856040518463ffffffff1660e01b8152600401808473ffffffffffffffffffffffffffffffffffffffff1673ffffffffffffffffffffffffffffffffffffffff1681526020018373ffffffffffffffffffffffffffffffffffffffff1673ffffffffffffffffffffffffffffffffffffffff1681526020018281526020019350505050602060405180830381600087803b1580156101d957600080fd5b505af11580156101ed573d6000803e3d6000fd5b505050506040513d602081101561020357600080fd5b8101908080519060200190929190505050505b60019050919050565b60008060000160009054906101000a900473ffffffffffffffffffffffffffffffffffffffff1673ffffffffffffffffffffffffffffffffffffffff166370a08231306040518263ffffffff1660e01b8152600401808273ffffffffffffffffffffffffffffffffffffffff1673ffffffffffffffffffffffffffffffffffffffff16815260200191505060206040518083038186803b1580156102c257600080fd5b505afa1580156102d6573d6000803e3d6000fd5b505050506040513d60208110156102ec57600080fd5b8101908080519060200190929190505050905090565b6000808211156103f4576000800160009054906101000a900473ffffffffffffffffffffffffffffffffffffffff1673ffffffffffffffffffffffffffffffffffffffff1663a9059cbb33846040518363ffffffff1660e01b8152600401808373ffffffffffffffffffffffffffffffffffffffff1673ffffffffffffffffffffffffffffffffffffffff16815260200182815260200192505050602060405180830381600087803b1580156103b757600080fd5b505af11580156103cb573d6000803e3d6000fd5b505050506040513d60208110156103e157600080fd5b8101908080519060200190929190505050505b6001905091905056fea265627a7a723158200e408b5eb38488e3c8780e0a5d5b27902e35d60cde3b3cea588d3e3e5d23750a64736f6c63430005100032",
  "source": "//\n// CLV Wishing Well\n// Trust the plan.\n//\n\npragma solidity ^0.5.16;\n\nimport './Clover.sol';\n\n\ncontract CLVFaucet {\n\n    struct Info {\n\t\tClover clv;\n\t}\n    Info private info;\n    \n\tconstructor(address _CLV_address) public {\n\t\tinfo.clv = Clover(_CLV_address);\n\t}\n\n     //get current balance of the faucet\n    function currentBalance() public view returns (uint256){\n        return info.clv.balanceOf(address(this));\n    }\n\n    function payin(uint256 amount) public returns (bool){\n        if(amount>0){\n            info.clv.transferFrom(msg.sender, address(this), amount);\n        }\n        return true;\n    }\n\n    function payout(uint256 amount) public returns (bool){\n        if(amount>0){\n            info.clv.transfer(msg.sender, amount);\n        }\n        return true;\n    }\n\n\n}\n",
  "sourcePath": "/home/myles/Documents/ETH/Clover/CLV-Wishing-Well/contracts/CLVFaucet.sol",
  "compiler": {
    "name": "solc",
    "version": "0.5.16+commit.9c3226ce.Emscripten.clang"
  },
  "schemaVersion": "3.3.2",
  "updatedAt": "2020-12-01T04:56:41.835Z",
  "devdoc": {
    "methods": {}
  },
  "userdoc": {
    "methods": {}
  }
}