{
  "contractName": "RandomWell",
  "abi": [
    {
      "inputs": [
        {
          "internalType": "address",
          "name": "_CLVaddress",
          "type": "address"
        }
      ],
      "payable": false,
      "stateMutability": "nonpayable",
      "type": "constructor"
    },
    {
      "anonymous": false,
      "inputs": [
        {
          "indexed": false,
          "internalType": "address",
          "name": "better",
          "type": "address"
        },
        {
          "indexed": false,
          "internalType": "uint256",
          "name": "amount",
          "type": "uint256"
        }
      ],
      "name": "AddToPot",
      "type": "event"
    },
    {
      "anonymous": false,
      "inputs": [
        {
          "indexed": false,
          "internalType": "address",
          "name": "better",
          "type": "address"
        },
        {
          "indexed": false,
          "internalType": "uint256",
          "name": "amount",
          "type": "uint256"
        }
      ],
      "name": "Bet",
      "type": "event"
    },
    {
      "anonymous": false,
      "inputs": [
        {
          "indexed": false,
          "internalType": "address",
          "name": "winner",
          "type": "address"
        },
        {
          "indexed": false,
          "internalType": "uint256",
          "name": "winnings",
          "type": "uint256"
        }
      ],
      "name": "RoundOver",
      "type": "event"
    },
    {
      "anonymous": false,
      "inputs": [
        {
          "indexed": false,
          "internalType": "address",
          "name": "user",
          "type": "address"
        },
        {
          "indexed": false,
          "internalType": "uint256",
          "name": "amount",
          "type": "uint256"
        }
      ],
      "name": "Withdraw",
      "type": "event"
    },
    {
      "constant": false,
      "inputs": [
        {
          "internalType": "uint256",
          "name": "_tokens",
          "type": "uint256"
        }
      ],
      "name": "addToPot",
      "outputs": [],
      "payable": false,
      "stateMutability": "nonpayable",
      "type": "function"
    },
    {
      "constant": false,
      "inputs": [],
      "name": "startNextRound",
      "outputs": [],
      "payable": false,
      "stateMutability": "nonpayable",
      "type": "function"
    },
    {
      "constant": true,
      "inputs": [
        {
          "internalType": "address",
          "name": "_user",
          "type": "address"
        }
      ],
      "name": "currentWinnings",
      "outputs": [
        {
          "internalType": "uint256",
          "name": "",
          "type": "uint256"
        }
      ],
      "payable": false,
      "stateMutability": "view",
      "type": "function"
    },
    {
      "constant": false,
      "inputs": [],
      "name": "withdrawWinnings",
      "outputs": [
        {
          "internalType": "uint256",
          "name": "",
          "type": "uint256"
        }
      ],
      "payable": false,
      "stateMutability": "nonpayable",
      "type": "function"
    },
    {
      "constant": true,
      "inputs": [
        {
          "internalType": "address",
          "name": "_user",
          "type": "address"
        }
      ],
      "name": "wellInfo",
      "outputs": [
        {
          "internalType": "uint256",
          "name": "potBalance",
          "type": "uint256"
        },
        {
          "internalType": "uint256",
          "name": "roundNumber",
          "type": "uint256"
        },
        {
          "internalType": "uint256",
          "name": "playsThisRound",
          "type": "uint256"
        },
        {
          "internalType": "uint256",
          "name": "roundEndTime",
          "type": "uint256"
        },
        {
          "internalType": "uint256",
          "name": "minBet",
          "type": "uint256"
        },
        {
          "internalType": "address",
          "name": "lastPlayer",
          "type": "address"
        },
        {
          "internalType": "address",
          "name": "lastWinner",
          "type": "address"
        },
        {
          "internalType": "uint256",
          "name": "wellBalance",
          "type": "uint256"
        },
        {
          "internalType": "uint256",
          "name": "userAllowance",
          "type": "uint256"
        },
        {
          "internalType": "uint256",
          "name": "userWinnings",
          "type": "uint256"
        }
      ],
      "payable": false,
      "stateMutability": "view",
      "type": "function"
    },
    {
      "constant": false,
      "inputs": [
        {
          "internalType": "uint256",
          "name": "_amount",
          "type": "uint256"
        }
      ],
      "name": "bet",
      "outputs": [
        {
          "internalType": "uint256",
          "name": "",
          "type": "uint256"
        }
      ],
      "payable": false,
      "stateMutability": "nonpayable",
      "type": "function"
    }
  ],
  "bytecode": "0x608060405234801561001057600080fd5b50604051610f53380380610f538339818101604052602081101561003357600080fd5b8101908080519060200190929190505050806000800160006101000a81548173ffffffffffffffffffffffffffffffffffffffff021916908373ffffffffffffffffffffffffffffffffffffffff16021790555060008060030160006101000a81548173ffffffffffffffffffffffffffffffffffffffff021916908373ffffffffffffffffffffffffffffffffffffffff16021790555060008060020160006101000a81548173ffffffffffffffffffffffffffffffffffffffff021916908373ffffffffffffffffffffffffffffffffffffffff1602179055506000806006018190555050610e2a806101296000396000f3fe608060405234801561001057600080fd5b50600436106100625760003560e01c806318d13cbb14610067578063366077ee146101565780633c3ccc44146101845780637365870b1461018e578063904c560f146101d0578063cc42e83a14610228575b600080fd5b6100a96004803603602081101561007d57600080fd5b81019080803573ffffffffffffffffffffffffffffffffffffffff169060200190929190505050610246565b604051808b81526020018a81526020018981526020018881526020018781526020018673ffffffffffffffffffffffffffffffffffffffff1673ffffffffffffffffffffffffffffffffffffffff1681526020018573ffffffffffffffffffffffffffffffffffffffff1673ffffffffffffffffffffffffffffffffffffffff1681526020018481526020018381526020018281526020019a505050505050505050505060405180910390f35b6101826004803603602081101561016c57600080fd5b81019080803590602001909291905050506104d5565b005b61018c6106f1565b005b6101ba600480360360208110156101a457600080fd5b8101908080359060200190929190505050610894565b6040518082815260200191505060405180910390f35b610212600480360360208110156101e657600080fd5b81019080803573ffffffffffffffffffffffffffffffffffffffff169060200190929190505050610b56565b6040518082815260200191505060405180910390f35b610230610ba4565b6040518082815260200191505060405180910390f35b60008060008060008060008060008060006004015499506000600701549850600060080154975060006006015496506000600501549550600060020160009054906101000a900473ffffffffffffffffffffffffffffffffffffffff169450600060030160009054906101000a900473ffffffffffffffffffffffffffffffffffffffff1693506000800160009054906101000a900473ffffffffffffffffffffffffffffffffffffffff1673ffffffffffffffffffffffffffffffffffffffff166370a08231306040518263ffffffff1660e01b8152600401808273ffffffffffffffffffffffffffffffffffffffff1673ffffffffffffffffffffffffffffffffffffffff16815260200191505060206040518083038186803b15801561036e57600080fd5b505afa158015610382573d6000803e3d6000fd5b505050506040513d602081101561039857600080fd5b810190808051906020019092919050505092506000800160009054906101000a900473ffffffffffffffffffffffffffffffffffffffff1673ffffffffffffffffffffffffffffffffffffffff1663dd62ed3e8c306040518363ffffffff1660e01b8152600401808373ffffffffffffffffffffffffffffffffffffffff1673ffffffffffffffffffffffffffffffffffffffff1681526020018273ffffffffffffffffffffffffffffffffffffffff1673ffffffffffffffffffffffffffffffffffffffff1681526020019250505060206040518083038186803b15801561048057600080fd5b505afa158015610494573d6000803e3d6000fd5b505050506040513d60208110156104aa57600080fd5b810190808051906020019092919050505091506104c68b610b56565b90509193959799509193959799565b806000811161054c576040517f08c379a000000000000000000000000000000000000000000000000000000000815260040180806020018281038252600b8152602001807f4d757374206265203e203000000000000000000000000000000000000000000081525060200191505060405180910390fd5b6000800160009054906101000a900473ffffffffffffffffffffffffffffffffffffffff1673ffffffffffffffffffffffffffffffffffffffff166323b872dd3330856040518463ffffffff1660e01b8152600401808473ffffffffffffffffffffffffffffffffffffffff1673ffffffffffffffffffffffffffffffffffffffff1681526020018373ffffffffffffffffffffffffffffffffffffffff1673ffffffffffffffffffffffffffffffffffffffff1681526020018281526020019350505050602060405180830381600087803b15801561062b57600080fd5b505af115801561063f573d6000803e3d6000fd5b505050506040513d602081101561065557600080fd5b810190808051906020019092919050505061066f57600080fd5b816000600401600082825401925050819055507f925d920a6c0992630576e68100f88e463081bd2ce1da7172900367d0af524ab53383604051808373ffffffffffffffffffffffffffffffffffffffff1673ffffffffffffffffffffffffffffffffffffffff1681526020018281526020019250505060405180910390a15050565b60006006015442101561070357600080fd5b6000806008015411156107a5576000620f424060006004015403905080600060010160008060020160009054906101000a900473ffffffffffffffffffffffffffffffffffffffff1673ffffffffffffffffffffffffffffffffffffffff1673ffffffffffffffffffffffffffffffffffffffff16815260200190815260200160002060000160008282540192505081905550620f4240600060040181905550505b600060020160009054906101000a900473ffffffffffffffffffffffffffffffffffffffff16600060030160006101000a81548173ffffffffffffffffffffffffffffffffffffffff021916908373ffffffffffffffffffffffffffffffffffffffff1602179055506000600701600081548092919060010191905055506000806008018190555060008060020160006101000a81548173ffffffffffffffffffffffffffffffffffffffff021916908373ffffffffffffffffffffffffffffffffffffffff160217905550600a6005024201600060060181905550610889610dde565b600060050181905550565b6000806006015442106108a657600080fd5b60006005015482116108b757600080fd5b6000800160009054906101000a900473ffffffffffffffffffffffffffffffffffffffff1673ffffffffffffffffffffffffffffffffffffffff166323b872dd3330856040518463ffffffff1660e01b8152600401808473ffffffffffffffffffffffffffffffffffffffff1673ffffffffffffffffffffffffffffffffffffffff1681526020018373ffffffffffffffffffffffffffffffffffffffff1673ffffffffffffffffffffffffffffffffffffffff1681526020018281526020019350505050602060405180830381600087803b15801561099657600080fd5b505af11580156109aa573d6000803e3d6000fd5b505050506040513d60208110156109c057600080fd5b81019080805190602001909291905050506109da57600080fd5b816000600401600082825401925050819055506001600060080160008282540192505081905550600060020160009054906101000a900473ffffffffffffffffffffffffffffffffffffffff1673ffffffffffffffffffffffffffffffffffffffff163373ffffffffffffffffffffffffffffffffffffffff161415610a7657600a600102600060060160008282540192505081905550610a8e565b600a6005026000600601600082825401925050819055505b610a96610dde565b60006005018190555033600060020160006101000a81548173ffffffffffffffffffffffffffffffffffffffff021916908373ffffffffffffffffffffffffffffffffffffffff1602179055507fc0ae20ffbb1eca06a840c35912bdb9f8e6e1fad1f028c875be0ddf54d480d71e3383604051808373ffffffffffffffffffffffffffffffffffffffff1673ffffffffffffffffffffffffffffffffffffffff1681526020018281526020019250505060405180910390a1819050919050565b60008060010160008373ffffffffffffffffffffffffffffffffffffffff1673ffffffffffffffffffffffffffffffffffffffff168152602001908152602001600020600001549050919050565b6000806000800160009054906101000a900473ffffffffffffffffffffffffffffffffffffffff1673ffffffffffffffffffffffffffffffffffffffff166370a08231306040518263ffffffff1660e01b8152600401808273ffffffffffffffffffffffffffffffffffffffff1673ffffffffffffffffffffffffffffffffffffffff16815260200191505060206040518083038186803b158015610c4857600080fd5b505afa158015610c5c573d6000803e3d6000fd5b505050506040513d6020811015610c7257600080fd5b810190808051906020019092919050505090506000800160009054906101000a900473ffffffffffffffffffffffffffffffffffffffff1673ffffffffffffffffffffffffffffffffffffffff1663a9059cbb33836040518363ffffffff1660e01b8152600401808373ffffffffffffffffffffffffffffffffffffffff1673ffffffffffffffffffffffffffffffffffffffff16815260200182815260200192505050602060405180830381600087803b158015610d3057600080fd5b505af1158015610d44573d6000803e3d6000fd5b505050506040513d6020811015610d5a57600080fd5b8101908080519060200190929190505050507f884edad9ce6fa2440d8a54cc123490eb96d2768479d49ff9c7366125a94243643382604051808373ffffffffffffffffffffffffffffffffffffffff1673ffffffffffffffffffffffffffffffffffffffff1681526020018281526020019250505060405180910390a18091505090565b6000606460006004015481610def57fe5b0490509056fea265627a7a72315820b5e78a8a7b14241b1b7a97ca7a96381bcb127745317e6d60f73db37803c4a91c64736f6c63430005110032",
  "source": "\n//\n// CLV Wishing Well\n// Trust the plan.\n//\n\npragma solidity ^0.5.16;\n\nimport \"./Clover.sol\";\nimport \"./CLV2D.sol\";\n\ncontract RandomWell {\n  uint constant private PI = 3141592; //6 decimals\n  uint constant private EULERS = 2718281;//6 decimals E\n  uint256 constant private startingPotSize = 1000000; //pot must always start with 1\n  uint256 constant private skimPercent = 1; //skim 5% of winnins to put into C2D\n  uint constant private bigPotFrequency = 100; // how often the big pot occurs\n  uint constant private minimumProbability = 1; //At least 1/2000 chance for any gamble\n  uint constant private minute = 10; //60 seconds in a minute\n\n\tevent Bet(address better, uint256 amount);\n  event AddToPot(address better, uint256 amount);\n  event Withdraw(address user, uint256 amount);\n  event RoundOver(address winner, uint256 winnings);\n\n\tstruct User {\n\t\tuint256 winnings;\n\t}\n\n\tstruct Info {\n    Clover clv;\n\n\t\tmapping(address => User) users;\n    address lastPlayer;\n    address lastWinner;\n    uint256 potBalance;\n    uint256 minBet;\n    uint256 roundEndTime;\n    uint256 roundNumber;\n    uint256 playsThisRound;\n\t}\n\n  modifier gameIsOver {require(now >= info.roundEndTime); _; }\n  modifier gameIsNotOver {require(now < info.roundEndTime); _; }\n  modifier greaterThanZero(uint256 amount) {require(amount>0, \"Must be > 0\"); _;}\n  \n  Info private info;\n\n\tconstructor(address _CLVaddress) public {\n    info.clv = Clover(_CLVaddress);\n    //not sure if these are needed, but good to be safe\n    info.lastWinner = address(0x0);\n    info.lastPlayer = address(0x0);\n    info.roundEndTime = 0;\n\t}\n\n  function addToPot(uint256 _tokens) external greaterThanZero(_tokens){\n    //do a transfer\n    require(info.clv.transferFrom(msg.sender, address(this), _tokens));\n    info.potBalance += _tokens;\n    emit AddToPot(msg.sender, _tokens);\n  }\n\n  function startNextRound() external gameIsOver{\n    //first need to clean up last round\n    if(info.playsThisRound>0){//if any bets were played\n      uint256 playerWinnings = info.potBalance - startingPotSize;\n      info.users[info.lastPlayer].winnings += playerWinnings;\n      info.potBalance = startingPotSize;\n    }//else dont modify pot or users winnings.\n    info.lastWinner = info.lastPlayer;\n\n    //start next round\n    info.roundNumber++;\n    info.playsThisRound = 0;\n    info.lastPlayer = address(0x0);\n    info.roundEndTime = now+5*minute;//add 5 mins\n    info.minBet = calcMinBet();\n  }\n\n  function calcMinBet() internal view returns (uint256){\n    return info.potBalance/100; //min bet is 1% of current Pot\n  }\n\n\n  //get current balance (winnings of a user)\n  function currentWinnings(address _user) public view returns (uint256){\n    return info.users[_user].winnings;\n  }\n\n  function withdrawWinnings() external returns (uint256){\n    //uint256 currBal = currentWinnings(msg.sender);\n    //check that that we have something\n    //require(currBal > 0, \"Need more than 0CLV in winnings to withdraw\");\n    //info.clv.approve(msg.sender, currBal);\n\t\t//info.clv.transfer(msg.sender, currBal);\n\t\t//info.users[msg.sender].winnings -= currBal;\n\t\tuint currBal = info.clv.balanceOf(address(this));\n    info.clv.transfer(msg.sender, currBal);\n\n    emit Withdraw(msg.sender, currBal);\n\t\treturn currBal;\n  }\n\n  //current status of the well\n  function wellInfo(address _user) public view returns \n  (uint256 potBalance, \n  uint256 roundNumber, \n  uint256 playsThisRound,\n  uint256 roundEndTime,\n  uint256 minBet,\n  address lastPlayer,\n  address lastWinner,\n  uint256 wellBalance,\n  uint256 userAllowance,\n  uint256 userWinnings){\n    potBalance = info.potBalance;\n    roundNumber = info.roundNumber;\n    playsThisRound = info.playsThisRound;\n    roundEndTime = info.roundEndTime;\n    minBet = info.minBet;\n    lastPlayer = info.lastPlayer;\n    lastWinner = info.lastWinner;\n    wellBalance = info.clv.balanceOf(address(this));\n    userAllowance = info.clv.allowance(_user, address(this));\n    userWinnings = currentWinnings(_user);\n  }\n\n  function bet(uint256 _amount) external gameIsNotOver returns (uint256){\n    //_tokens come it with 6 decimals. ie 1 CLV comes in as 1000000\n    require(_amount > info.minBet);\n    require(info.clv.transferFrom(msg.sender, address(this), _amount));\n\t\tinfo.potBalance += _amount;\n    //info.roundNumber = likelihood;\n    info.playsThisRound += 1;\n    if(msg.sender == info.lastPlayer){\n      info.roundEndTime += 1*minute;//add 1 min if they just played\n    } else{\n      info.roundEndTime += 5*minute;//add 5 mins if they did not just play\n    }\n    info.minBet = calcMinBet();\n    info.lastPlayer = msg.sender;\n\t\temit Bet(msg.sender, _amount);\n    return _amount;\n  } \n\n}\n",
  "sourcePath": "/home/myles/Documents/ETH/Clover/CLV-Wishing-Well/contracts/RandomWell.sol",
  "compiler": {
    "name": "solc",
    "version": "0.5.17+commit.d19bba13.Emscripten.clang"
  },
  "schemaVersion": "3.3.2",
  "updatedAt": "2020-12-08T19:39:38.176Z",
  "networkType": "ethereum",
  "devdoc": {
    "methods": {}
  },
  "userdoc": {
    "methods": {}
  }
}