{
  "contractName": "RandomWell",
  "abi": [
    {
      "inputs": [
        {
          "internalType": "address",
          "name": "_CLVaddress",
          "type": "address"
        },
        {
          "internalType": "address",
          "name": "_C2Daddress",
          "type": "address"
        }
      ],
      "payable": false,
      "stateMutability": "nonpayable",
      "type": "constructor"
    },
    {
      "anonymous": false,
      "inputs": [
        {
          "indexed": false,
          "internalType": "address",
          "name": "better",
          "type": "address"
        },
        {
          "indexed": false,
          "internalType": "uint256",
          "name": "amount",
          "type": "uint256"
        }
      ],
      "name": "AddToPot",
      "type": "event"
    },
    {
      "anonymous": false,
      "inputs": [
        {
          "indexed": false,
          "internalType": "address",
          "name": "better",
          "type": "address"
        },
        {
          "indexed": false,
          "internalType": "uint256",
          "name": "amount",
          "type": "uint256"
        }
      ],
      "name": "Bet",
      "type": "event"
    },
    {
      "anonymous": false,
      "inputs": [
        {
          "indexed": false,
          "internalType": "address",
          "name": "winner",
          "type": "address"
        },
        {
          "indexed": false,
          "internalType": "uint256",
          "name": "winnings",
          "type": "uint256"
        }
      ],
      "name": "RoundOver",
      "type": "event"
    },
    {
      "anonymous": false,
      "inputs": [
        {
          "indexed": false,
          "internalType": "address",
          "name": "user",
          "type": "address"
        },
        {
          "indexed": false,
          "internalType": "uint256",
          "name": "amount",
          "type": "uint256"
        }
      ],
      "name": "Withdraw",
      "type": "event"
    },
    {
      "constant": true,
      "inputs": [],
      "name": "bigPotFrequency",
      "outputs": [
        {
          "internalType": "uint256",
          "name": "",
          "type": "uint256"
        }
      ],
      "payable": false,
      "stateMutability": "view",
      "type": "function"
    },
    {
      "constant": false,
      "inputs": [
        {
          "internalType": "uint256",
          "name": "_tokens",
          "type": "uint256"
        }
      ],
      "name": "addToPot",
      "outputs": [],
      "payable": false,
      "stateMutability": "nonpayable",
      "type": "function"
    },
    {
      "constant": false,
      "inputs": [],
      "name": "startNextRound",
      "outputs": [],
      "payable": false,
      "stateMutability": "nonpayable",
      "type": "function"
    },
    {
      "constant": true,
      "inputs": [
        {
          "internalType": "address",
          "name": "_user",
          "type": "address"
        }
      ],
      "name": "currentWinnings",
      "outputs": [
        {
          "internalType": "uint256",
          "name": "",
          "type": "uint256"
        }
      ],
      "payable": false,
      "stateMutability": "view",
      "type": "function"
    },
    {
      "constant": false,
      "inputs": [],
      "name": "withdrawWinnings",
      "outputs": [
        {
          "internalType": "uint256",
          "name": "",
          "type": "uint256"
        }
      ],
      "payable": false,
      "stateMutability": "nonpayable",
      "type": "function"
    },
    {
      "constant": true,
      "inputs": [
        {
          "internalType": "address",
          "name": "_user",
          "type": "address"
        }
      ],
      "name": "wellInfo",
      "outputs": [
        {
          "internalType": "uint256",
          "name": "potBalance",
          "type": "uint256"
        },
        {
          "internalType": "uint256",
          "name": "roundNumber",
          "type": "uint256"
        },
        {
          "internalType": "uint256",
          "name": "playsThisRound",
          "type": "uint256"
        },
        {
          "internalType": "uint256",
          "name": "roundEndTime",
          "type": "uint256"
        },
        {
          "internalType": "uint256",
          "name": "minBet",
          "type": "uint256"
        },
        {
          "internalType": "address",
          "name": "lastPlayer",
          "type": "address"
        },
        {
          "internalType": "address",
          "name": "lastWinner",
          "type": "address"
        },
        {
          "internalType": "uint256",
          "name": "wellBalance",
          "type": "uint256"
        },
        {
          "internalType": "uint256",
          "name": "userAllowance",
          "type": "uint256"
        },
        {
          "internalType": "uint256",
          "name": "userWinnings",
          "type": "uint256"
        },
        {
          "internalType": "uint256",
          "name": "wellC2Dbalance",
          "type": "uint256"
        },
        {
          "internalType": "uint256",
          "name": "wellC2Ddividends",
          "type": "uint256"
        },
        {
          "internalType": "uint256",
          "name": "bigPotFreq",
          "type": "uint256"
        }
      ],
      "payable": false,
      "stateMutability": "view",
      "type": "function"
    },
    {
      "constant": false,
      "inputs": [
        {
          "internalType": "uint256",
          "name": "_amount",
          "type": "uint256"
        }
      ],
      "name": "bet",
      "outputs": [
        {
          "internalType": "uint256",
          "name": "",
          "type": "uint256"
        }
      ],
      "payable": false,
      "stateMutability": "nonpayable",
      "type": "function"
    }
  ],
  "bytecode": "0x608060405234801561001057600080fd5b506040516116573803806116578339818101604052604081101561003357600080fd5b810190808051906020019092919080519060200190929190505050816000800160006101000a81548173ffffffffffffffffffffffffffffffffffffffff021916908373ffffffffffffffffffffffffffffffffffffffff16021790555080600060010160006101000a81548173ffffffffffffffffffffffffffffffffffffffff021916908373ffffffffffffffffffffffffffffffffffffffff16021790555060008060040160006101000a81548173ffffffffffffffffffffffffffffffffffffffff021916908373ffffffffffffffffffffffffffffffffffffffff16021790555060008060030160006101000a81548173ffffffffffffffffffffffffffffffffffffffff021916908373ffffffffffffffffffffffffffffffffffffffff1602179055506000806007018190555050506114df806101786000396000f3fe608060405234801561001057600080fd5b506004361061007d5760003560e01c80633c3ccc441161005b5780633c3ccc44146101d25780637365870b146101dc578063904c560f1461021e578063cc42e83a146102765761007d565b80630429a2f01461008257806318d13cbb146100a0578063366077ee146101a4575b600080fd5b61008a610294565b6040518082815260200191505060405180910390f35b6100e2600480360360208110156100b657600080fd5b81019080803573ffffffffffffffffffffffffffffffffffffffff169060200190929190505050610299565b604051808e81526020018d81526020018c81526020018b81526020018a81526020018973ffffffffffffffffffffffffffffffffffffffff1673ffffffffffffffffffffffffffffffffffffffff1681526020018873ffffffffffffffffffffffffffffffffffffffff1673ffffffffffffffffffffffffffffffffffffffff1681526020018781526020018681526020018581526020018481526020018381526020018281526020019d505050505050505050505050505060405180910390f35b6101d0600480360360208110156101ba57600080fd5b81019080803590602001909291905050506106f1565b005b6101da61090d565b005b610208600480360360208110156101f257600080fd5b8101908080359060200190929190505050610f45565b6040518082815260200191505060405180910390f35b6102606004803603602081101561023457600080fd5b81019080803573ffffffffffffffffffffffffffffffffffffffff169060200190929190505050611207565b6040518082815260200191505060405180910390f35b61027e611255565b6040518082815260200191505060405180910390f35b600a81565b600080600080600080600080600080600080600080600501549c506000600801549b506000600901549a5060006007015499506000600601549850600060030160009054906101000a900473ffffffffffffffffffffffffffffffffffffffff169750600060040160009054906101000a900473ffffffffffffffffffffffffffffffffffffffff1696506000800160009054906101000a900473ffffffffffffffffffffffffffffffffffffffff1673ffffffffffffffffffffffffffffffffffffffff166370a08231306040518263ffffffff1660e01b8152600401808273ffffffffffffffffffffffffffffffffffffffff1673ffffffffffffffffffffffffffffffffffffffff16815260200191505060206040518083038186803b1580156103c557600080fd5b505afa1580156103d9573d6000803e3d6000fd5b505050506040513d60208110156103ef57600080fd5b810190808051906020019092919050505095506000800160009054906101000a900473ffffffffffffffffffffffffffffffffffffffff1673ffffffffffffffffffffffffffffffffffffffff1663dd62ed3e8f306040518363ffffffff1660e01b8152600401808373ffffffffffffffffffffffffffffffffffffffff1673ffffffffffffffffffffffffffffffffffffffff1681526020018273ffffffffffffffffffffffffffffffffffffffff1673ffffffffffffffffffffffffffffffffffffffff1681526020019250505060206040518083038186803b1580156104d757600080fd5b505afa1580156104eb573d6000803e3d6000fd5b505050506040513d602081101561050157600080fd5b8101908080519060200190929190505050945061051d8e611207565b9350600060010160009054906101000a900473ffffffffffffffffffffffffffffffffffffffff1673ffffffffffffffffffffffffffffffffffffffff166370a08231306040518263ffffffff1660e01b8152600401808273ffffffffffffffffffffffffffffffffffffffff1673ffffffffffffffffffffffffffffffffffffffff16815260200191505060206040518083038186803b1580156105c157600080fd5b505afa1580156105d5573d6000803e3d6000fd5b505050506040513d60208110156105eb57600080fd5b81019080805190602001909291905050509250600060010160009054906101000a900473ffffffffffffffffffffffffffffffffffffffff1673ffffffffffffffffffffffffffffffffffffffff166265318b306040518263ffffffff1660e01b8152600401808273ffffffffffffffffffffffffffffffffffffffff1673ffffffffffffffffffffffffffffffffffffffff16815260200191505060206040518083038186803b15801561069f57600080fd5b505afa1580156106b3573d6000803e3d6000fd5b505050506040513d60208110156106c957600080fd5b81019080805190602001909291905050509150600a905091939597999b9d90929496989a9c50565b8060008111610768576040517f08c379a000000000000000000000000000000000000000000000000000000000815260040180806020018281038252600b8152602001807f4d757374206265203e203000000000000000000000000000000000000000000081525060200191505060405180910390fd5b6000800160009054906101000a900473ffffffffffffffffffffffffffffffffffffffff1673ffffffffffffffffffffffffffffffffffffffff166323b872dd3330856040518463ffffffff1660e01b8152600401808473ffffffffffffffffffffffffffffffffffffffff1673ffffffffffffffffffffffffffffffffffffffff1681526020018373ffffffffffffffffffffffffffffffffffffffff1673ffffffffffffffffffffffffffffffffffffffff1681526020018281526020019350505050602060405180830381600087803b15801561084757600080fd5b505af115801561085b573d6000803e3d6000fd5b505050506040513d602081101561087157600080fd5b810190808051906020019092919050505061088b57600080fd5b816000600501600082825401925050819055507f925d920a6c0992630576e68100f88e463081bd2ce1da7172900367d0af524ab53383604051808373ffffffffffffffffffffffffffffffffffffffff1673ffffffffffffffffffffffffffffffffffffffff1681526020018281526020019250505060405180910390a15050565b60006007015442101561091f57600080fd5b600080600901541115610bec57620f42406000600501541115610beb576000620f424060006005015403905060006014828161095757fe5b0490506000818303905080600060020160008060030160009054906101000a900473ffffffffffffffffffffffffffffffffffffffff1673ffffffffffffffffffffffffffffffffffffffff1673ffffffffffffffffffffffffffffffffffffffff168152602001908152602001600020600001600082825401925050819055508160006005016000828254039250508190555080600060050160008282540392505081905550600082118015610a2157506000600a60016000600801540181610a1d57fe5b0614155b15610be7576000800160009054906101000a900473ffffffffffffffffffffffffffffffffffffffff1673ffffffffffffffffffffffffffffffffffffffff1663095ea7b3600060010160009054906101000a900473ffffffffffffffffffffffffffffffffffffffff16846040518363ffffffff1660e01b8152600401808373ffffffffffffffffffffffffffffffffffffffff1673ffffffffffffffffffffffffffffffffffffffff16815260200182815260200192505050602060405180830381600087803b158015610af657600080fd5b505af1158015610b0a573d6000803e3d6000fd5b505050506040513d6020811015610b2057600080fd5b810190808051906020019092919050505050600060010160009054906101000a900473ffffffffffffffffffffffffffffffffffffffff1673ffffffffffffffffffffffffffffffffffffffff1663d96a094a836040518263ffffffff1660e01b815260040180828152602001915050602060405180830381600087803b158015610baa57600080fd5b505af1158015610bbe573d6000803e3d6000fd5b505050506040513d6020811015610bd457600080fd5b8101908080519060200190929190505050505b5050505b5b600060030160009054906101000a900473ffffffffffffffffffffffffffffffffffffffff16600060040160006101000a81548173ffffffffffffffffffffffffffffffffffffffff021916908373ffffffffffffffffffffffffffffffffffffffff1602179055506000600801600081548092919060010191905055506000600a60006008015481610c7b57fe5b061415610ed75760008060010160009054906101000a900473ffffffffffffffffffffffffffffffffffffffff1673ffffffffffffffffffffffffffffffffffffffff166370a08231306040518263ffffffff1660e01b8152600401808273ffffffffffffffffffffffffffffffffffffffff1673ffffffffffffffffffffffffffffffffffffffff16815260200191505060206040518083038186803b158015610d2557600080fd5b505afa158015610d39573d6000803e3d6000fd5b505050506040513d6020811015610d4f57600080fd5b8101908080519060200190929190505050905060008060010160009054906101000a900473ffffffffffffffffffffffffffffffffffffffff1673ffffffffffffffffffffffffffffffffffffffff1663e4849b32836040518263ffffffff1660e01b815260040180828152602001915050602060405180830381600087803b158015610ddb57600080fd5b505af1158015610def573d6000803e3d6000fd5b505050506040513d6020811015610e0557600080fd5b8101908080519060200190929190505050905080600060050160008282540192505081905550600060010160009054906101000a900473ffffffffffffffffffffffffffffffffffffffff1673ffffffffffffffffffffffffffffffffffffffff1663fdb5a03e6040518163ffffffff1660e01b8152600401602060405180830381600087803b158015610e9857600080fd5b505af1158015610eac573d6000803e3d6000fd5b505050506040513d6020811015610ec257600080fd5b81019080805190602001909291905050505050505b6000806009018190555060008060030160006101000a81548173ffffffffffffffffffffffffffffffffffffffff021916908373ffffffffffffffffffffffffffffffffffffffff16021790555060784201600060070181905550610f3a611468565b600060060181905550565b600080600701544210610f5757600080fd5b6000600601548211610f6857600080fd5b6000800160009054906101000a900473ffffffffffffffffffffffffffffffffffffffff1673ffffffffffffffffffffffffffffffffffffffff166323b872dd3330856040518463ffffffff1660e01b8152600401808473ffffffffffffffffffffffffffffffffffffffff1673ffffffffffffffffffffffffffffffffffffffff1681526020018373ffffffffffffffffffffffffffffffffffffffff1673ffffffffffffffffffffffffffffffffffffffff1681526020018281526020019350505050602060405180830381600087803b15801561104757600080fd5b505af115801561105b573d6000803e3d6000fd5b505050506040513d602081101561107157600080fd5b810190808051906020019092919050505061108b57600080fd5b816000600501600082825401925050819055506001600060090160008282540192505081905550600060030160009054906101000a900473ffffffffffffffffffffffffffffffffffffffff1673ffffffffffffffffffffffffffffffffffffffff163373ffffffffffffffffffffffffffffffffffffffff16141561112757600a60010260006007016000828254019250508190555061113f565b600a6005026000600701600082825401925050819055505b611147611468565b60006006018190555033600060030160006101000a81548173ffffffffffffffffffffffffffffffffffffffff021916908373ffffffffffffffffffffffffffffffffffffffff1602179055507fc0ae20ffbb1eca06a840c35912bdb9f8e6e1fad1f028c875be0ddf54d480d71e3383604051808373ffffffffffffffffffffffffffffffffffffffff1673ffffffffffffffffffffffffffffffffffffffff1681526020018281526020019250505060405180910390a1819050919050565b60008060020160008373ffffffffffffffffffffffffffffffffffffffff1673ffffffffffffffffffffffffffffffffffffffff168152602001908152602001600020600001549050919050565b60008061126133611207565b9050600081116112bc576040517f08c379a000000000000000000000000000000000000000000000000000000000815260040180806020018281038252602b815260200180611480602b913960400191505060405180910390fd5b6000800160009054906101000a900473ffffffffffffffffffffffffffffffffffffffff1673ffffffffffffffffffffffffffffffffffffffff1663a9059cbb33836040518363ffffffff1660e01b8152600401808373ffffffffffffffffffffffffffffffffffffffff1673ffffffffffffffffffffffffffffffffffffffff16815260200182815260200192505050602060405180830381600087803b15801561136757600080fd5b505af115801561137b573d6000803e3d6000fd5b505050506040513d602081101561139157600080fd5b81019080805190602001909291905050505080600060020160003373ffffffffffffffffffffffffffffffffffffffff1673ffffffffffffffffffffffffffffffffffffffff168152602001908152602001600020600001600082825403925050819055507f884edad9ce6fa2440d8a54cc123490eb96d2768479d49ff9c7366125a94243643382604051808373ffffffffffffffffffffffffffffffffffffffff1673ffffffffffffffffffffffffffffffffffffffff1681526020018281526020019250505060405180910390a18091505090565b600060646000600501548161147957fe5b0490509056fe4e656564206d6f7265207468616e2030434c5620696e2077696e6e696e677320746f207769746864726177a265627a7a72315820cb052ed368a0c7f0235160398ad8663f015ce3967c60ae45cbcfa53073160f4764736f6c63430005110032",
  "source": "\n//\n// CLV Wishing Well\n// Trust the plan.\n//\n\npragma solidity ^0.5.16;\n\nimport \"./Clover.sol\";\nimport \"./CLV2D.sol\";\n\ncontract RandomWell {\n  uint constant private PI = 3141592; //6 decimals\n  uint constant private EULERS = 2718281;//6 decimals E\n  uint256 constant private startingPotSize = 1000000; //pot must always start with 1\n  uint256 constant private skimPercent = 1; //skim 5% of winnins to put into C2D\n  uint constant public bigPotFrequency = 10; // how often the big pot occurs\n  uint constant private minimumProbability = 1; //At least 1/2000 chance for any gamble\n  uint constant private minute = 10; //60 seconds in a minute\n\n\tevent Bet(address better, uint256 amount);\n  event AddToPot(address better, uint256 amount);\n  event Withdraw(address user, uint256 amount);\n  event RoundOver(address winner, uint256 winnings);\n\n\tstruct User {\n\t\tuint256 winnings;\n\t}\n\n\tstruct Info {\n    Clover clv;\n    CLV2D c2d;\n\n\t\tmapping(address => User) users;\n    address lastPlayer;\n    address lastWinner;\n    uint256 potBalance;\n    uint256 minBet;\n    uint256 roundEndTime;\n    uint256 roundNumber;\n    uint256 playsThisRound;\n\t}\n\n  modifier gameIsOver {require(now >= info.roundEndTime); _; }\n  modifier gameIsNotOver {require(now < info.roundEndTime); _; }\n  modifier greaterThanZero(uint256 amount) {require(amount>0, \"Must be > 0\"); _;}\n  \n  Info private info;\n\n\tconstructor(address _CLVaddress, address _C2Daddress) public {\n    info.clv = Clover(_CLVaddress);\n    info.c2d = CLV2D(_C2Daddress);\n    //not sure if these are needed, but good to be safe\n    info.lastWinner = address(0x0);\n    info.lastPlayer = address(0x0);\n    info.roundEndTime = 0;\n\t}\n\n  function addToPot(uint256 _tokens) external greaterThanZero(_tokens){\n    //do a transfer\n    require(info.clv.transferFrom(msg.sender, address(this), _tokens));\n    info.potBalance += _tokens;\n    emit AddToPot(msg.sender, _tokens);\n  }\n\n  function startNextRound() external gameIsOver{\n    //first need to clean up last round\n    if(info.playsThisRound>0){//if any bets were played\n      if(info.potBalance>startingPotSize){\n        uint256 available = info.potBalance - startingPotSize;\n        uint256 forC2D = available/20; //take 5%\n        uint256 playerWinnings = available-forC2D;\n        info.users[info.lastPlayer].winnings += playerWinnings;\n        info.potBalance -= forC2D;\n        info.potBalance -= playerWinnings;\n        \n        //transfer to c2d\n        if(forC2D>0 && ((info.roundNumber+1) % bigPotFrequency != 0)){\n          info.clv.approve(address(info.c2d), forC2D);\n          info.c2d.buy(forC2D);\n        }\n      }\n    }//else dont modify pot or users winnings.\n    info.lastWinner = info.lastPlayer;\n\n    \n    //start next round\n    info.roundNumber++;\n    //fill pot with c2d\n    if(info.roundNumber%bigPotFrequency == 0){\n      //sell all c2d\n      uint256 c2dBal = info.c2d.balanceOf(address(this));\n      uint256 newCLV = info.c2d.sell(c2dBal);\n      info.potBalance += newCLV;\n\n      //reinvest c2d dividends\n      info.c2d.reinvest();\n    }\n\n    info.playsThisRound = 0;\n    info.lastPlayer = address(0x0);\n    info.roundEndTime = now+2*60;//add 2 mins\n    info.minBet = calcMinBet();\n  }\n\n  function calcMinBet() internal view returns (uint256){\n    return info.potBalance/100; //min bet is 1% of current Pot\n  }\n\n\n  //get current balance (winnings of a user)\n  function currentWinnings(address _user) public view returns (uint256){\n    return info.users[_user].winnings;\n  }\n\n  function withdrawWinnings() external returns (uint256){\n    uint256 currBal = currentWinnings(msg.sender);\n    //check that that we have something\n    require(currBal > 0, \"Need more than 0CLV in winnings to withdraw\");\n\t\tinfo.clv.transfer(msg.sender, currBal);\n\t\tinfo.users[msg.sender].winnings -= currBal;\n\n    emit Withdraw(msg.sender, currBal);\n\t\treturn currBal;\n  }\n\n  //current status of the well\n  function wellInfo(address _user) public view returns \n  (uint256 potBalance, \n  uint256 roundNumber, \n  uint256 playsThisRound,\n  uint256 roundEndTime,\n  uint256 minBet,\n  address lastPlayer,\n  address lastWinner,\n  uint256 wellBalance,\n  uint256 userAllowance,\n  uint256 userWinnings,\n  uint256 wellC2Dbalance,\n  uint256 wellC2Ddividends,\n  uint256 bigPotFreq){\n    potBalance = info.potBalance;\n    roundNumber = info.roundNumber;\n    playsThisRound = info.playsThisRound;\n    roundEndTime = info.roundEndTime;\n    minBet = info.minBet;\n    lastPlayer = info.lastPlayer;\n    lastWinner = info.lastWinner;\n    wellBalance = info.clv.balanceOf(address(this));\n    userAllowance = info.clv.allowance(_user, address(this));\n    userWinnings = currentWinnings(_user);\n    wellC2Dbalance = info.c2d.balanceOf(address(this));\n    wellC2Ddividends = info.c2d.dividendsOf(address(this));\n    bigPotFreq = bigPotFrequency;\n  }\n\n  function bet(uint256 _amount) external gameIsNotOver returns (uint256){\n    //_tokens come it with 6 decimals. ie 1 CLV comes in as 1000000\n    require(_amount > info.minBet);\n    require(info.clv.transferFrom(msg.sender, address(this), _amount));\n\t\tinfo.potBalance += _amount;\n    info.playsThisRound += 1;\n    if(msg.sender == info.lastPlayer){\n      info.roundEndTime += 1*minute;//add 1 min if they just played\n    } else{\n      info.roundEndTime += 5*minute;//add 5 mins if they did not just play\n    }\n    info.minBet = calcMinBet();\n    info.lastPlayer = msg.sender;\n\t\temit Bet(msg.sender, _amount);\n    return _amount;\n  } \n\n}\n",
  "sourcePath": "/home/myles/Documents/ETH/Clover/CLV-Wishing-Well/contracts/RandomWell.sol",
  "compiler": {
    "name": "solc",
    "version": "0.5.17+commit.d19bba13.Emscripten.clang"
  },
  "schemaVersion": "3.3.2",
  "updatedAt": "2020-12-10T18:44:00.951Z",
  "networkType": "ethereum",
  "devdoc": {
    "methods": {}
  },
  "userdoc": {
    "methods": {}
  }
}