{
  "contractName": "WishingWell",
  "abi": [
    {
      "inputs": [
        {
          "internalType": "address",
          "name": "_CLVaddress",
          "type": "address"
        },
        {
          "internalType": "address",
          "name": "_C2Daddress",
          "type": "address"
        }
      ],
      "payable": false,
      "stateMutability": "nonpayable",
      "type": "constructor"
    },
    {
      "anonymous": false,
      "inputs": [
        {
          "indexed": false,
          "internalType": "address",
          "name": "better",
          "type": "address"
        },
        {
          "indexed": false,
          "internalType": "uint256",
          "name": "amount",
          "type": "uint256"
        },
        {
          "indexed": false,
          "internalType": "uint256",
          "name": "potBalance",
          "type": "uint256"
        }
      ],
      "name": "Bet",
      "type": "event"
    },
    {
      "anonymous": false,
      "inputs": [
        {
          "indexed": false,
          "internalType": "uint256",
          "name": "roundNumber",
          "type": "uint256"
        },
        {
          "indexed": false,
          "internalType": "uint256",
          "name": "startingPot",
          "type": "uint256"
        }
      ],
      "name": "StartNextRound",
      "type": "event"
    },
    {
      "anonymous": false,
      "inputs": [
        {
          "indexed": false,
          "internalType": "address",
          "name": "user",
          "type": "address"
        },
        {
          "indexed": false,
          "internalType": "uint256",
          "name": "amount",
          "type": "uint256"
        }
      ],
      "name": "Withdraw",
      "type": "event"
    },
    {
      "constant": true,
      "inputs": [],
      "name": "bigPotFrequency",
      "outputs": [
        {
          "internalType": "uint256",
          "name": "",
          "type": "uint256"
        }
      ],
      "payable": false,
      "stateMutability": "view",
      "type": "function"
    },
    {
      "constant": true,
      "inputs": [
        {
          "internalType": "address",
          "name": "_user",
          "type": "address"
        }
      ],
      "name": "currentWinnings",
      "outputs": [
        {
          "internalType": "uint256",
          "name": "",
          "type": "uint256"
        }
      ],
      "payable": false,
      "stateMutability": "view",
      "type": "function"
    },
    {
      "constant": false,
      "inputs": [],
      "name": "withdrawWinnings",
      "outputs": [
        {
          "internalType": "uint256",
          "name": "",
          "type": "uint256"
        }
      ],
      "payable": false,
      "stateMutability": "nonpayable",
      "type": "function"
    },
    {
      "constant": true,
      "inputs": [
        {
          "internalType": "address",
          "name": "_user",
          "type": "address"
        }
      ],
      "name": "wellInfo",
      "outputs": [
        {
          "internalType": "uint256",
          "name": "potBalance",
          "type": "uint256"
        },
        {
          "internalType": "uint256",
          "name": "roundNumber",
          "type": "uint256"
        },
        {
          "internalType": "uint256",
          "name": "playsThisRound",
          "type": "uint256"
        },
        {
          "internalType": "uint256",
          "name": "roundEndTime",
          "type": "uint256"
        },
        {
          "internalType": "uint256",
          "name": "minBet",
          "type": "uint256"
        },
        {
          "internalType": "address",
          "name": "lastPlayer",
          "type": "address"
        },
        {
          "internalType": "address",
          "name": "lastWinner",
          "type": "address"
        },
        {
          "internalType": "uint256",
          "name": "wellBalance",
          "type": "uint256"
        },
        {
          "internalType": "uint256",
          "name": "userAllowance",
          "type": "uint256"
        },
        {
          "internalType": "uint256",
          "name": "userWinnings",
          "type": "uint256"
        },
        {
          "internalType": "uint256",
          "name": "wellC2Dbalance",
          "type": "uint256"
        },
        {
          "internalType": "uint256",
          "name": "bigPotFreq",
          "type": "uint256"
        },
        {
          "internalType": "uint256",
          "name": "wellCLVLiquidBalance",
          "type": "uint256"
        }
      ],
      "payable": false,
      "stateMutability": "view",
      "type": "function"
    },
    {
      "constant": false,
      "inputs": [
        {
          "internalType": "uint256",
          "name": "_amount",
          "type": "uint256"
        }
      ],
      "name": "bet",
      "outputs": [
        {
          "internalType": "uint256",
          "name": "",
          "type": "uint256"
        }
      ],
      "payable": false,
      "stateMutability": "nonpayable",
      "type": "function"
    },
    {
      "constant": false,
      "inputs": [
        {
          "internalType": "uint256",
          "name": "_bet",
          "type": "uint256"
        }
      ],
      "name": "startNextRound",
      "outputs": [
        {
          "internalType": "uint256",
          "name": "",
          "type": "uint256"
        }
      ],
      "payable": false,
      "stateMutability": "nonpayable",
      "type": "function"
    }
  ],
  "bytecode": "0x608060405234801561001057600080fd5b506040516115713803806115718339818101604052604081101561003357600080fd5b810190808051906020019092919080519060200190929190505050816000800160006101000a81548173ffffffffffffffffffffffffffffffffffffffff021916908373ffffffffffffffffffffffffffffffffffffffff16021790555080600060010160006101000a81548173ffffffffffffffffffffffffffffffffffffffff021916908373ffffffffffffffffffffffffffffffffffffffff16021790555060008060040160006101000a81548173ffffffffffffffffffffffffffffffffffffffff021916908373ffffffffffffffffffffffffffffffffffffffff16021790555060008060030160006101000a81548173ffffffffffffffffffffffffffffffffffffffff021916908373ffffffffffffffffffffffffffffffffffffffff160217905550600080600601819055506000806009018190555050506113ef806101826000396000f3fe608060405234801561001057600080fd5b50600436106100625760003560e01c80630429a2f014610067578063090085631461008557806318d13cbb146100c75780637365870b146101cb578063904c560f1461020d578063cc42e83a14610265575b600080fd5b61006f610283565b6040518082815260200191505060405180910390f35b6100b16004803603602081101561009b57600080fd5b8101908080359060200190929190505050610288565b6040518082815260200191505060405180910390f35b610109600480360360208110156100dd57600080fd5b81019080803573ffffffffffffffffffffffffffffffffffffffff1690602001909291905050506108f4565b604051808e81526020018d81526020018c81526020018b81526020018a81526020018973ffffffffffffffffffffffffffffffffffffffff1673ffffffffffffffffffffffffffffffffffffffff1681526020018873ffffffffffffffffffffffffffffffffffffffff1673ffffffffffffffffffffffffffffffffffffffff1681526020018781526020018681526020018581526020018481526020018381526020018281526020019d505050505050505050505050505060405180910390f35b6101f7600480360360208110156101e157600080fd5b8101908080359060200190929190505050610d3d565b6040518082815260200191505060405180910390f35b61024f6004803603602081101561022357600080fd5b81019080803573ffffffffffffffffffffffffffffffffffffffff169060200190929190505050610ffc565b6040518082815260200191505060405180910390f35b61026d61104a565b6040518082815260200191505060405180910390f35b603281565b6000806006015442101561029b57600080fd5b60008060080154111561055957620f42406102b4611270565b1115610558576000620f42406102c8611270565b0390506000601482816102d757fe5b0490506000818303905080600060020160008060030160009054906101000a900473ffffffffffffffffffffffffffffffffffffffff1673ffffffffffffffffffffffffffffffffffffffff1673ffffffffffffffffffffffffffffffffffffffff168152602001908152602001600020600001600082825401925050819055508060006009016000828254019250508190555060008211801561038e5750600060326001600060070154018161038a57fe5b0614155b15610554576000800160009054906101000a900473ffffffffffffffffffffffffffffffffffffffff1673ffffffffffffffffffffffffffffffffffffffff1663095ea7b3600060010160009054906101000a900473ffffffffffffffffffffffffffffffffffffffff16846040518363ffffffff1660e01b8152600401808373ffffffffffffffffffffffffffffffffffffffff1673ffffffffffffffffffffffffffffffffffffffff16815260200182815260200192505050602060405180830381600087803b15801561046357600080fd5b505af1158015610477573d6000803e3d6000fd5b505050506040513d602081101561048d57600080fd5b810190808051906020019092919050505050600060010160009054906101000a900473ffffffffffffffffffffffffffffffffffffffff1673ffffffffffffffffffffffffffffffffffffffff1663d96a094a836040518263ffffffff1660e01b815260040180828152602001915050602060405180830381600087803b15801561051757600080fd5b505af115801561052b573d6000803e3d6000fd5b505050506040513d602081101561054157600080fd5b8101908080519060200190929190505050505b5050505b5b600060030160009054906101000a900473ffffffffffffffffffffffffffffffffffffffff16600060040160006101000a81548173ffffffffffffffffffffffffffffffffffffffff021916908373ffffffffffffffffffffffffffffffffffffffff16021790555060006007016000815480929190600101919050555060006032600060070154816105e857fe5b06141561082e5760008060010160009054906101000a900473ffffffffffffffffffffffffffffffffffffffff1673ffffffffffffffffffffffffffffffffffffffff166370a08231306040518263ffffffff1660e01b8152600401808273ffffffffffffffffffffffffffffffffffffffff1673ffffffffffffffffffffffffffffffffffffffff16815260200191505060206040518083038186803b15801561069257600080fd5b505afa1580156106a6573d6000803e3d6000fd5b505050506040513d60208110156106bc57600080fd5b81019080805190602001909291905050509050600060010160009054906101000a900473ffffffffffffffffffffffffffffffffffffffff1673ffffffffffffffffffffffffffffffffffffffff1663e4849b32826040518263ffffffff1660e01b815260040180828152602001915050602060405180830381600087803b15801561074757600080fd5b505af115801561075b573d6000803e3d6000fd5b505050506040513d602081101561077157600080fd5b810190808051906020019092919050505050600060010160009054906101000a900473ffffffffffffffffffffffffffffffffffffffff1673ffffffffffffffffffffffffffffffffffffffff1663fdb5a03e6040518163ffffffff1660e01b8152600401602060405180830381600087803b1580156107f057600080fd5b505af1158015610804573d6000803e3d6000fd5b505050506040513d602081101561081a57600080fd5b810190808051906020019092919050505050505b6000806008018190555060008060030160006101000a81548173ffffffffffffffffffffffffffffffffffffffff021916908373ffffffffffffffffffffffffffffffffffffffff160217905550603c60050242016000600601819055506203640e6000600501819055507fa8bc0d27917386b11e47b7c6dbd992f32663373ee48aec873e81845a4cc5edc36000600701546108c8611270565b604051808381526020018281526020019250505060405180910390a16108ed82610d3d565b9050919050565b6000806000806000806000806000806000806000610910611270565b9c506000600701549b506000600801549a5060006006015499506000600501549850600060030160009054906101000a900473ffffffffffffffffffffffffffffffffffffffff169750600060040160009054906101000a900473ffffffffffffffffffffffffffffffffffffffff1696506000800160009054906101000a900473ffffffffffffffffffffffffffffffffffffffff1673ffffffffffffffffffffffffffffffffffffffff166370a08231306040518263ffffffff1660e01b8152600401808273ffffffffffffffffffffffffffffffffffffffff1673ffffffffffffffffffffffffffffffffffffffff16815260200191505060206040518083038186803b158015610a2357600080fd5b505afa158015610a37573d6000803e3d6000fd5b505050506040513d6020811015610a4d57600080fd5b810190808051906020019092919050505095506000800160009054906101000a900473ffffffffffffffffffffffffffffffffffffffff1673ffffffffffffffffffffffffffffffffffffffff1663dd62ed3e8f306040518363ffffffff1660e01b8152600401808373ffffffffffffffffffffffffffffffffffffffff1673ffffffffffffffffffffffffffffffffffffffff1681526020018273ffffffffffffffffffffffffffffffffffffffff1673ffffffffffffffffffffffffffffffffffffffff1681526020019250505060206040518083038186803b158015610b3557600080fd5b505afa158015610b49573d6000803e3d6000fd5b505050506040513d6020811015610b5f57600080fd5b81019080805190602001909291905050509450610b7b8e610ffc565b9350600060010160009054906101000a900473ffffffffffffffffffffffffffffffffffffffff1673ffffffffffffffffffffffffffffffffffffffff166370a08231306040518263ffffffff1660e01b8152600401808273ffffffffffffffffffffffffffffffffffffffff1673ffffffffffffffffffffffffffffffffffffffff16815260200191505060206040518083038186803b158015610c1f57600080fd5b505afa158015610c33573d6000803e3d6000fd5b505050506040513d6020811015610c4957600080fd5b81019080805190602001909291905050509250600060010160009054906101000a900473ffffffffffffffffffffffffffffffffffffffff1673ffffffffffffffffffffffffffffffffffffffff16633472956c846000806040518463ffffffff1660e01b8152600401808481526020018315151515815260200182151515158152602001935050505060206040518083038186803b158015610ceb57600080fd5b505afa158015610cff573d6000803e3d6000fd5b505050506040513d6020811015610d1557600080fd5b810190808051906020019092919050505090506032915091939597999b9d90929496989a9c50565b600080600601544210610d4f57600080fd5b600060050154821015610d6157600080fd5b6000800160009054906101000a900473ffffffffffffffffffffffffffffffffffffffff1673ffffffffffffffffffffffffffffffffffffffff166323b872dd3330856040518463ffffffff1660e01b8152600401808473ffffffffffffffffffffffffffffffffffffffff1673ffffffffffffffffffffffffffffffffffffffff1681526020018373ffffffffffffffffffffffffffffffffffffffff1673ffffffffffffffffffffffffffffffffffffffff1681526020018281526020019350505050602060405180830381600087803b158015610e4057600080fd5b505af1158015610e54573d6000803e3d6000fd5b505050506040513d6020811015610e6a57600080fd5b8101908080519060200190929190505050610e8457600080fd5b6001600060080160008282540192505081905550600060030160009054906101000a900473ffffffffffffffffffffffffffffffffffffffff1673ffffffffffffffffffffffffffffffffffffffff163373ffffffffffffffffffffffffffffffffffffffff161415610f0d57603c600102600060060160008282540192505081905550610f25565b603c6005026000600601600082825401925050819055505b610f2d611359565b60006005018190555033600060030160006101000a81548173ffffffffffffffffffffffffffffffffffffffff021916908373ffffffffffffffffffffffffffffffffffffffff1602179055507ff41b7910e085d0992d604fd470931728fd77cc8eb504d99e50e51a0a30fcfd1a3383610fa5611270565b604051808473ffffffffffffffffffffffffffffffffffffffff1673ffffffffffffffffffffffffffffffffffffffff168152602001838152602001828152602001935050505060405180910390a1819050919050565b60008060020160008373ffffffffffffffffffffffffffffffffffffffff1673ffffffffffffffffffffffffffffffffffffffff168152602001908152602001600020600001549050919050565b60008061105633610ffc565b9050600081116110b1576040517f08c379a000000000000000000000000000000000000000000000000000000000815260040180806020018281038252602b815260200180611390602b913960400191505060405180910390fd5b6000800160009054906101000a900473ffffffffffffffffffffffffffffffffffffffff1673ffffffffffffffffffffffffffffffffffffffff1663a9059cbb33836040518363ffffffff1660e01b8152600401808373ffffffffffffffffffffffffffffffffffffffff1673ffffffffffffffffffffffffffffffffffffffff16815260200182815260200192505050602060405180830381600087803b15801561115c57600080fd5b505af1158015611170573d6000803e3d6000fd5b505050506040513d602081101561118657600080fd5b81019080805190602001909291905050505080600060020160003373ffffffffffffffffffffffffffffffffffffffff1673ffffffffffffffffffffffffffffffffffffffff16815260200190815260200160002060000160008282540392505081905550806000600901600082825403925050819055507f884edad9ce6fa2440d8a54cc123490eb96d2768479d49ff9c7366125a94243643382604051808373ffffffffffffffffffffffffffffffffffffffff1673ffffffffffffffffffffffffffffffffffffffff1681526020018281526020019250505060405180910390a18091505090565b600080600901546000800160009054906101000a900473ffffffffffffffffffffffffffffffffffffffff1673ffffffffffffffffffffffffffffffffffffffff166370a08231306040518263ffffffff1660e01b8152600401808273ffffffffffffffffffffffffffffffffffffffff1673ffffffffffffffffffffffffffffffffffffffff16815260200191505060206040518083038186803b15801561131857600080fd5b505afa15801561132c573d6000803e3d6000fd5b505050506040513d602081101561134257600080fd5b810190808051906020019092919050505003905090565b6000806064611366611270565b8161136d57fe5b04905060006005015481116113885760016000600501540190505b809150509056fe4e656564206d6f7265207468616e2030434c5620696e2077696e6e696e677320746f207769746864726177a265627a7a72315820fff11dfb0e6c856e9ec7bb8922712a1a6ba4b99fa0409b8c820b31e47fd40f3964736f6c63430005110032",
  "source": "\n//\n// CLV Wishing Well\n// Trust the plan.\n//\n\npragma solidity ^0.5.16;\n\nimport \"./Clover.sol\";\nimport \"./CLV2D.sol\";\n\ncontract WishingWell {\n  uint256 constant private startingPotSize = 1000000; //pot must always start with 1\n  uint256 constant private skimPercent = 20; //skim 5% of winnins to put into C2D (100/20 == 5)\n  uint constant public bigPotFrequency = 50; // how often the big pot occurs\n  uint constant private minute = 60; //60 seconds in a minute\n\n\tevent Bet(address better, uint256 amount, uint256 potBalance);\n  event Withdraw(address user, uint256 amount);\n  event StartNextRound(uint256 roundNumber, uint256 startingPot);\n\t\n  struct User {\n\t\tuint256 winnings;\n\t}\n\n\tstruct Info {\n    Clover clv;\n    CLV2D c2d;\n\n\t\tmapping(address => User) users;\n    address lastPlayer;\n    address lastWinner;\n    uint256 minBet;\n    uint256 roundEndTime;\n    uint256 roundNumber;\n    uint256 playsThisRound;\n    uint256 heldWinnings;\n\t}\n\n  modifier gameIsOver {require(now >= info.roundEndTime); _; }\n  modifier gameIsNotOver {require(now < info.roundEndTime); _; }\n  modifier greaterThanZero(uint256 amount) {require(amount>0, \"Must be > 0\"); _;}\n  \n  Info private info;\n\n\tconstructor(address _CLVaddress, address _C2Daddress) public {\n    info.clv = Clover(_CLVaddress);\n    info.c2d = CLV2D(_C2Daddress);\n    \n    info.lastWinner = address(0x0);\n    info.lastPlayer = address(0x0);\n    info.roundEndTime = 0;\n    info.heldWinnings = 0;\n\t}\n\n  function calcMinBet() internal view returns (uint256){\n    uint256 newMin = getPotBalance()/100; //min bet is 1% of current Pot\n    if(newMin<=info.minBet){//in case where the minimumBet hasn't grown\n      newMin = info.minBet+1;\n    }\n    return newMin;\n  }\n\n  //get current balance (winnings of a user)\n  function currentWinnings(address _user) public view returns (uint256){\n    return info.users[_user].winnings;\n  }\n\n  function  getPotBalance() internal view returns (uint256){\n    return (info.clv.balanceOf(address(this)) - info.heldWinnings);\n  }\n\n  function withdrawWinnings() external returns (uint256){\n    uint256 currBal = currentWinnings(msg.sender);\n    //check that that we have something\n    require(currBal > 0, \"Need more than 0CLV in winnings to withdraw\");\n\t\tinfo.clv.transfer(msg.sender, currBal);\n\t\tinfo.users[msg.sender].winnings -= currBal;\n    info.heldWinnings -= currBal;\n\n    emit Withdraw(msg.sender, currBal);\n\t\treturn currBal;\n  }\n\n  //current status of the well\n  function wellInfo(address _user) public view returns \n  (uint256 potBalance, \n  uint256 roundNumber, \n  uint256 playsThisRound,\n  uint256 roundEndTime,\n  uint256 minBet,\n  address lastPlayer,\n  address lastWinner,\n  uint256 wellBalance,\n  uint256 userAllowance,\n  uint256 userWinnings,\n  uint256 wellC2Dbalance,\n  uint256 bigPotFreq,\n  uint256 wellCLVLiquidBalance){\n    potBalance = getPotBalance();\n    roundNumber = info.roundNumber;\n    playsThisRound = info.playsThisRound;\n    roundEndTime = info.roundEndTime;\n    minBet = info.minBet;\n    lastPlayer = info.lastPlayer;\n    lastWinner = info.lastWinner;\n    wellBalance = info.clv.balanceOf(address(this));\n    userAllowance = info.clv.allowance(_user, address(this));\n    userWinnings = currentWinnings(_user);\n    wellC2Dbalance = info.c2d.balanceOf(address(this));\n    wellCLVLiquidBalance = info.c2d.calculateResult(wellC2Dbalance, false, false);\n    bigPotFreq = bigPotFrequency;\n  }\n\n  function bet(uint256 _amount) public gameIsNotOver returns (uint256){\n    //_tokens come it with 6 decimals. ie 1 CLV comes in as 1000000\n    require(_amount >= info.minBet);\n    require(info.clv.transferFrom(msg.sender, address(this), _amount));\n    info.playsThisRound += 1;\n    if(msg.sender == info.lastPlayer){\n      info.roundEndTime += 1*minute;//add 1 min if they just played\n    } else{\n      info.roundEndTime += 5*minute;//add 5 mins if they did not just play\n    }\n    info.minBet = calcMinBet();\n    info.lastPlayer = msg.sender;\n\t\temit Bet(msg.sender, _amount, getPotBalance());\n    return _amount;\n  } \n\n  function startNextRound(uint256 _bet) external gameIsOver returns(uint256){\n    //first need to clean up last round\n    if(info.playsThisRound>0){//if any bets were played\n      if(getPotBalance()>startingPotSize){\n        uint256 available = getPotBalance() - startingPotSize;\n        uint256 forC2D = available/20; //take 5%\n        uint256 playerWinnings = available-forC2D;\n        info.users[info.lastPlayer].winnings += playerWinnings;\n        info.heldWinnings += playerWinnings;\n        \n        //transfer to c2d\n        if(forC2D>0 && ((info.roundNumber+1) % bigPotFrequency != 0)){\n          info.clv.approve(address(info.c2d), forC2D);\n          info.c2d.buy(forC2D);\n        }\n      }\n    }//else dont modify pot or users winnings.\n    info.lastWinner = info.lastPlayer;\n\n    //start next round\n    info.roundNumber++;\n    //fill pot with c2d\n    if(info.roundNumber%bigPotFrequency == 0){\n      //sell all c2d\n      uint256 c2dBal = info.c2d.balanceOf(address(this));\n      info.c2d.sell(c2dBal);\n      //reinvest c2d dividends\n      info.c2d.reinvest();\n    }\n\n    info.playsThisRound = 0;\n    info.lastPlayer = address(0x0);\n    info.roundEndTime = now+5*minute;//add 5 mins + the bettings addition (also 5)\n    info.minBet = 222222; //always start with a minbet of 0.222222\n    emit StartNextRound(info.roundNumber, getPotBalance());\n\n    //now place inital bet\n    return(bet(_bet));\n  }\n\n}\n",
  "sourcePath": "/home/myles/Documents/ETH/Clover/CLV-Wishing-Well/contracts/WishingWell.sol",
  "compiler": {
    "name": "solc",
    "version": "0.5.17+commit.d19bba13.Emscripten.clang"
  },
  "schemaVersion": "3.3.2",
  "updatedAt": "2020-12-17T21:10:37.893Z",
  "networkType": "ethereum",
  "devdoc": {
    "methods": {}
  },
  "userdoc": {
    "methods": {}
  }
}